{
    "contractName": "CrowdFunding",
    "abi": [
        {
            "inputs": [
                {
                    "internalType": "uint256",
                    "name": "_target",
                    "type": "uint256"
                },
                {
                    "internalType": "uint256",
                    "name": "_deadline",
                    "type": "uint256"
                }
            ],
            "stateMutability": "nonpayable",
            "type": "constructor"
        },
        {
            "inputs": [
                {
                    "internalType": "address",
                    "name": "",
                    "type": "address"
                }
            ],
            "name": "contributors",
            "outputs": [
                {
                    "internalType": "uint256",
                    "name": "",
                    "type": "uint256"
                }
            ],
            "stateMutability": "view",
            "type": "function",
            "constant": true
        },
        {
            "inputs": [],
            "name": "deadline",
            "outputs": [
                {
                    "internalType": "uint256",
                    "name": "",
                    "type": "uint256"
                }
            ],
            "stateMutability": "view",
            "type": "function",
            "constant": true
        },
        {
            "inputs": [],
            "name": "manager",
            "outputs": [
                {
                    "internalType": "address",
                    "name": "",
                    "type": "address"
                }
            ],
            "stateMutability": "view",
            "type": "function",
            "constant": true
        },
        {
            "inputs": [],
            "name": "minimumContribution",
            "outputs": [
                {
                    "internalType": "uint256",
                    "name": "",
                    "type": "uint256"
                }
            ],
            "stateMutability": "view",
            "type": "function",
            "constant": true
        },
        {
            "inputs": [],
            "name": "noOfContributors",
            "outputs": [
                {
                    "internalType": "uint256",
                    "name": "",
                    "type": "uint256"
                }
            ],
            "stateMutability": "view",
            "type": "function",
            "constant": true
        },
        {
            "inputs": [],
            "name": "numRequests",
            "outputs": [
                {
                    "internalType": "uint256",
                    "name": "",
                    "type": "uint256"
                }
            ],
            "stateMutability": "view",
            "type": "function",
            "constant": true
        },
        {
            "inputs": [],
            "name": "raisedAmount",
            "outputs": [
                {
                    "internalType": "uint256",
                    "name": "",
                    "type": "uint256"
                }
            ],
            "stateMutability": "view",
            "type": "function",
            "constant": true
        },
        {
            "inputs": [
                {
                    "internalType": "uint256",
                    "name": "",
                    "type": "uint256"
                }
            ],
            "name": "requests",
            "outputs": [
                {
                    "internalType": "string",
                    "name": "description",
                    "type": "string"
                },
                {
                    "internalType": "address payable",
                    "name": "recipient",
                    "type": "address"
                },
                {
                    "internalType": "uint256",
                    "name": "value",
                    "type": "uint256"
                },
                {
                    "internalType": "bool",
                    "name": "completed",
                    "type": "bool"
                },
                {
                    "internalType": "uint256",
                    "name": "noOfVoters",
                    "type": "uint256"
                }
            ],
            "stateMutability": "view",
            "type": "function",
            "constant": true
        },
        {
            "inputs": [],
            "name": "target",
            "outputs": [
                {
                    "internalType": "uint256",
                    "name": "",
                    "type": "uint256"
                }
            ],
            "stateMutability": "view",
            "type": "function",
            "constant": true
        },
        {
            "inputs": [],
            "name": "sendEth",
            "outputs": [],
            "stateMutability": "payable",
            "type": "function",
            "payable": true
        },
        {
            "inputs": [],
            "name": "getContractBalanace",
            "outputs": [
                {
                    "internalType": "uint256",
                    "name": "",
                    "type": "uint256"
                }
            ],
            "stateMutability": "view",
            "type": "function",
            "constant": true
        },
        {
            "inputs": [],
            "name": "refund",
            "outputs": [],
            "stateMutability": "nonpayable",
            "type": "function"
        },
        {
            "inputs": [
                {
                    "internalType": "string",
                    "name": "_discription",
                    "type": "string"
                },
                {
                    "internalType": "address payable",
                    "name": "_recipient",
                    "type": "address"
                },
                {
                    "internalType": "uint256",
                    "name": "_value",
                    "type": "uint256"
                }
            ],
            "name": "createRequests",
            "outputs": [],
            "stateMutability": "nonpayable",
            "type": "function"
        },
        {
            "inputs": [
                {
                    "internalType": "uint256",
                    "name": "_requestNo",
                    "type": "uint256"
                }
            ],
            "name": "voteRequest",
            "outputs": [],
            "stateMutability": "nonpayable",
            "type": "function"
        },
        {
            "inputs": [
                {
                    "internalType": "uint256",
                    "name": "_requestNo",
                    "type": "uint256"
                }
            ],
            "name": "makePayment",
            "outputs": [],
            "stateMutability": "nonpayable",
            "type": "function"
        }
    ],
    "bytecode": "0x60806040523480156200001157600080fd5b50604051620019f6380380620019f68339818101604052810190620000379190620000e4565b8160048190555080426200004c91906200015a565b6003819055506101f460028190555033600160006101000a81548173ffffffffffffffffffffffffffffffffffffffff021916908373ffffffffffffffffffffffffffffffffffffffff160217905550505062000195565b600080fd5b6000819050919050565b620000be81620000a9565b8114620000ca57600080fd5b50565b600081519050620000de81620000b3565b92915050565b60008060408385031215620000fe57620000fd620000a4565b5b60006200010e85828601620000cd565b92505060206200012185828601620000cd565b9150509250929050565b7f4e487b7100000000000000000000000000000000000000000000000000000000600052601160045260246000fd5b60006200016782620000a9565b91506200017483620000a9565b92508282019050808211156200018f576200018e6200012b565b5b92915050565b61185180620001a56000396000f3fe6080604052600436106100e85760003560e01c80635114cb521161008a578063937e09b111610059578063937e09b1146102b35780639fb42b1f146102de578063c59ee1dc14610309578063d4b8399214610334576100e8565b80635114cb5214610207578063590e1ae31461023057806380fc96db1461024757806381d12c5814610272576100e8565b80633eb7647b116100c65780633eb7647b1461015f578063481c6a75146101885780634cb6f4a5146101b35780634e260f6f146101dc576100e8565b806306e99fef146100ed5780631f6d4942146100f757806329dcb0cf14610134575b600080fd5b6100f561035f565b005b34801561010357600080fd5b5061011e60048036038101906101199190610cd2565b6104b7565b60405161012b9190610d18565b60405180910390f35b34801561014057600080fd5b506101496104cf565b6040516101569190610d18565b60405180910390f35b34801561016b57600080fd5b5061018660048036038101906101819190610ee3565b6104d5565b005b34801561019457600080fd5b5061019d610621565b6040516101aa9190610f61565b60405180910390f35b3480156101bf57600080fd5b506101da60048036038101906101d59190610f7c565b610647565b005b3480156101e857600080fd5b506101f16107ec565b6040516101fe9190610d18565b60405180910390f35b34801561021357600080fd5b5061022e60048036038101906102299190610f7c565b6107f2565b005b34801561023c57600080fd5b506102456109e6565b005b34801561025357600080fd5b5061025c610b55565b6040516102699190610d18565b60405180910390f35b34801561027e57600080fd5b5061029960048036038101906102949190610f7c565b610b5d565b6040516102aa959493929190611052565b60405180910390f35b3480156102bf57600080fd5b506102c8610c48565b6040516102d59190610d18565b60405180910390f35b3480156102ea57600080fd5b506102f3610c4e565b6040516103009190610d18565b60405180910390f35b34801561031557600080fd5b5061031e610c54565b60405161032b9190610d18565b60405180910390f35b34801561034057600080fd5b50610349610c5a565b6040516103569190610d18565b60405180910390f35b60035442106103a3576040517f08c379a000000000000000000000000000000000000000000000000000000000815260040161039a906110f8565b60405180910390fd5b6002543410156103e8576040517f08c379a00000000000000000000000000000000000000000000000000000000081526004016103df90611164565b60405180910390fd5b60008060003373ffffffffffffffffffffffffffffffffffffffff1673ffffffffffffffffffffffffffffffffffffffff16815260200190815260200160002054036104475760066000815480929190610441906111b3565b91905055505b346000803373ffffffffffffffffffffffffffffffffffffffff1673ffffffffffffffffffffffffffffffffffffffff168152602001908152602001600020600082825461049591906111fb565b9250508190555034600560008282546104ae91906111fb565b92505081905550565b60006020528060005260406000206000915090505481565b60035481565b600160009054906101000a900473ffffffffffffffffffffffffffffffffffffffff1673ffffffffffffffffffffffffffffffffffffffff163373ffffffffffffffffffffffffffffffffffffffff1614610565576040517f08c379a000000000000000000000000000000000000000000000000000000000815260040161055c906112a1565b60405180910390fd5b6000600760006008548152602001908152602001600020905060086000815480929190610591906111b3565b9190505550838160000190816105a791906114cd565b50828160010160006101000a81548173ffffffffffffffffffffffffffffffffffffffff021916908373ffffffffffffffffffffffffffffffffffffffff16021790555081816002018190555060008160030160006101000a81548160ff0219169083151502179055506000816004018190555050505050565b600160009054906101000a900473ffffffffffffffffffffffffffffffffffffffff1681565b60008060003373ffffffffffffffffffffffffffffffffffffffff1673ffffffffffffffffffffffffffffffffffffffff16815260200190815260200160002054116106c8576040517f08c379a00000000000000000000000000000000000000000000000000000000081526004016106bf906115eb565b60405180910390fd5b6000600760008381526020019081526020016000209050600015158160050160003373ffffffffffffffffffffffffffffffffffffffff1673ffffffffffffffffffffffffffffffffffffffff16815260200190815260200160002060009054906101000a900460ff16151514610774576040517f08c379a000000000000000000000000000000000000000000000000000000000815260040161076b90611657565b60405180910390fd5b60018160050160003373ffffffffffffffffffffffffffffffffffffffff1673ffffffffffffffffffffffffffffffffffffffff16815260200190815260200160002060006101000a81548160ff0219169083151502179055508060040160008154809291906107e3906111b3565b91905055505050565b60065481565b600160009054906101000a900473ffffffffffffffffffffffffffffffffffffffff1673ffffffffffffffffffffffffffffffffffffffff163373ffffffffffffffffffffffffffffffffffffffff1614610882576040517f08c379a0000000000000000000000000000000000000000000000000000000008152600401610879906112a1565b60405180910390fd5b600454600554101561089357600080fd5b6000600760008381526020019081526020016000209050600015158160030160009054906101000a900460ff16151514610902576040517f08c379a00000000000000000000000000000000000000000000000000000000081526004016108f9906116c3565b60405180910390fd5b60026006546109119190611712565b816004015411610956576040517f08c379a000000000000000000000000000000000000000000000000000000000815260040161094d9061178f565b60405180910390fd5b8060010160009054906101000a900473ffffffffffffffffffffffffffffffffffffffff1673ffffffffffffffffffffffffffffffffffffffff166108fc82600201549081150290604051600060405180830381858888f193505050501580156109c4573d6000803e3d6000fd5b5060018160030160006101000a81548160ff0219169083151502179055505050565b600354421180156109fa5750600454600554105b610a39576040517f08c379a0000000000000000000000000000000000000000000000000000000008152600401610a30906117fb565b60405180910390fd5b60008060003373ffffffffffffffffffffffffffffffffffffffff1673ffffffffffffffffffffffffffffffffffffffff1681526020019081526020016000205411610a8457600080fd5b60003390508073ffffffffffffffffffffffffffffffffffffffff166108fc6000803373ffffffffffffffffffffffffffffffffffffffff1673ffffffffffffffffffffffffffffffffffffffff168152602001908152602001600020549081150290604051600060405180830381858888f19350505050158015610b0d573d6000803e3d6000fd5b5060008060003373ffffffffffffffffffffffffffffffffffffffff1673ffffffffffffffffffffffffffffffffffffffff1681526020019081526020016000208190555050565b600047905090565b6007602052806000526040600020600091509050806000018054610b80906112f0565b80601f0160208091040260200160405190810160405280929190818152602001828054610bac906112f0565b8015610bf95780601f10610bce57610100808354040283529160200191610bf9565b820191906000526020600020905b815481529060010190602001808311610bdc57829003601f168201915b5050505050908060010160009054906101000a900473ffffffffffffffffffffffffffffffffffffffff16908060020154908060030160009054906101000a900460ff16908060040154905085565b60025481565b60085481565b60055481565b60045481565b6000604051905090565b600080fd5b600080fd5b600073ffffffffffffffffffffffffffffffffffffffff82169050919050565b6000610c9f82610c74565b9050919050565b610caf81610c94565b8114610cba57600080fd5b50565b600081359050610ccc81610ca6565b92915050565b600060208284031215610ce857610ce7610c6a565b5b6000610cf684828501610cbd565b91505092915050565b6000819050919050565b610d1281610cff565b82525050565b6000602082019050610d2d6000830184610d09565b92915050565b600080fd5b600080fd5b6000601f19601f8301169050919050565b7f4e487b7100000000000000000000000000000000000000000000000000000000600052604160045260246000fd5b610d8682610d3d565b810181811067ffffffffffffffff82111715610da557610da4610d4e565b5b80604052505050565b6000610db8610c60565b9050610dc48282610d7d565b919050565b600067ffffffffffffffff821115610de457610de3610d4e565b5b610ded82610d3d565b9050602081019050919050565b82818337600083830152505050565b6000610e1c610e1784610dc9565b610dae565b905082815260208101848484011115610e3857610e37610d38565b5b610e43848285610dfa565b509392505050565b600082601f830112610e6057610e5f610d33565b5b8135610e70848260208601610e09565b91505092915050565b6000610e8482610c74565b9050919050565b610e9481610e79565b8114610e9f57600080fd5b50565b600081359050610eb181610e8b565b92915050565b610ec081610cff565b8114610ecb57600080fd5b50565b600081359050610edd81610eb7565b92915050565b600080600060608486031215610efc57610efb610c6a565b5b600084013567ffffffffffffffff811115610f1a57610f19610c6f565b5b610f2686828701610e4b565b9350506020610f3786828701610ea2565b9250506040610f4886828701610ece565b9150509250925092565b610f5b81610c94565b82525050565b6000602082019050610f766000830184610f52565b92915050565b600060208284031215610f9257610f91610c6a565b5b6000610fa084828501610ece565b91505092915050565b600081519050919050565b600082825260208201905092915050565b60005b83811015610fe3578082015181840152602081019050610fc8565b60008484015250505050565b6000610ffa82610fa9565b6110048185610fb4565b9350611014818560208601610fc5565b61101d81610d3d565b840191505092915050565b61103181610e79565b82525050565b60008115159050919050565b61104c81611037565b82525050565b600060a082019050818103600083015261106c8188610fef565b905061107b6020830187611028565b6110886040830186610d09565b6110956060830185611043565b6110a26080830184610d09565b9695505050505050565b7f446561646c696e65206861732070617373656400000000000000000000000000600082015250565b60006110e2601383610fb4565b91506110ed826110ac565b602082019050919050565b60006020820190508181036000830152611111816110d5565b9050919050565b7f4d696e696d756d20636f6e747269627574696f6e206973206e6f74206d657400600082015250565b600061114e601f83610fb4565b915061115982611118565b602082019050919050565b6000602082019050818103600083015261117d81611141565b9050919050565b7f4e487b7100000000000000000000000000000000000000000000000000000000600052601160045260246000fd5b60006111be82610cff565b91507fffffffffffffffffffffffffffffffffffffffffffffffffffffffffffffffff82036111f0576111ef611184565b5b600182019050919050565b600061120682610cff565b915061121183610cff565b925082820190508082111561122957611228611184565b5b92915050565b7f6f6e6c79206d616e616765722063616e2063616c6c20746869732066756e637460008201527f696f6e0000000000000000000000000000000000000000000000000000000000602082015250565b600061128b602383610fb4565b91506112968261122f565b604082019050919050565b600060208201905081810360008301526112ba8161127e565b9050919050565b7f4e487b7100000000000000000000000000000000000000000000000000000000600052602260045260246000fd5b6000600282049050600182168061130857607f821691505b60208210810361131b5761131a6112c1565b5b50919050565b60008190508160005260206000209050919050565b60006020601f8301049050919050565b600082821b905092915050565b6000600883026113837fffffffffffffffffffffffffffffffffffffffffffffffffffffffffffffffff82611346565b61138d8683611346565b95508019841693508086168417925050509392505050565b6000819050919050565b60006113ca6113c56113c084610cff565b6113a5565b610cff565b9050919050565b6000819050919050565b6113e4836113af565b6113f86113f0826113d1565b848454611353565b825550505050565b600090565b61140d611400565b6114188184846113db565b505050565b5b8181101561143c57611431600082611405565b60018101905061141e565b5050565b601f8211156114815761145281611321565b61145b84611336565b8101602085101561146a578190505b61147e61147685611336565b83018261141d565b50505b505050565b600082821c905092915050565b60006114a460001984600802611486565b1980831691505092915050565b60006114bd8383611493565b9150826002028217905092915050565b6114d682610fa9565b67ffffffffffffffff8111156114ef576114ee610d4e565b5b6114f982546112f0565b611504828285611440565b600060209050601f8311600181146115375760008415611525578287015190505b61152f85826114b1565b865550611597565b601f19841661154586611321565b60005b8281101561156d57848901518255600182019150602085019450602081019050611548565b8683101561158a5784890151611586601f891682611493565b8355505b6001600288020188555050505b505050505050565b7f796f75206d757374206265206120636f6e7472696275746f7200000000000000600082015250565b60006115d5601983610fb4565b91506115e08261159f565b602082019050919050565b60006020820190508181036000830152611604816115c8565b9050919050565b7f796f75206861766520616c726561647920766f74656400000000000000000000600082015250565b6000611641601683610fb4565b915061164c8261160b565b602082019050919050565b6000602082019050818103600083015261167081611634565b9050919050565b7f7468652072717565737420697320616c726561647920636f6d706c6574656400600082015250565b60006116ad601f83610fb4565b91506116b882611677565b602082019050919050565b600060208201905081810360008301526116dc816116a0565b9050919050565b7f4e487b7100000000000000000000000000000000000000000000000000000000600052601260045260246000fd5b600061171d82610cff565b915061172883610cff565b925082611738576117376116e3565b5b828204905092915050565b7f6d616a6f7269747920646f6573206e6f7420737570706f727465640000000000600082015250565b6000611779601b83610fb4565b915061178482611743565b602082019050919050565b600060208201905081810360008301526117a88161176c565b9050919050565b7f796f7520617265206e6f7420656c696769626c6520666f7220726566756e6400600082015250565b60006117e5601f83610fb4565b91506117f0826117af565b602082019050919050565b60006020820190508181036000830152611814816117d8565b905091905056fea2646970667358221220b6d79e70a189dc8a994670a918d25dbdad7e87fd2e50dfff53142968eac86a1f64736f6c63430008130033",
    "immutableReferences": {},
    "source": "// SPDX-License-Identifier: GPL-3.0\r\npragma solidity >=0.5.0 <0.9.0;\r\n\r\ncontract CrowdFunding\r\n{\r\n    mapping(address=>uint) public contributors;\r\n    address public manager;\r\n    uint public minimumContribution;\r\n    uint public deadline;\r\n    uint public target;\r\n    uint public raisedAmount;\r\n    uint public noOfContributors;\r\n\r\n    constructor(uint _target,uint _deadline){\r\n        target=_target;\r\n        deadline=block.timestamp+_deadline;\r\n        minimumContribution=500 wei;\r\n        manager=msg.sender;\r\n    }\r\n\r\n    function sendEth() public payable{\r\n        require(block.timestamp < deadline,\"Deadline has passed\");\r\n        require(msg.value >= minimumContribution,\"Minimum contribution is not met\");\r\n\r\n        if(contributors[msg.sender]==0){\r\n            noOfContributors++;\r\n        }\r\n        contributors[msg.sender]+=msg.value;\r\n        raisedAmount+=msg.value;\r\n    }\r\n    function getContractBalanace() public view returns(uint){\r\n        return address(this).balance;\r\n    }\r\n\r\n    function refund() public{\r\n        require(block.timestamp>deadline && raisedAmount<target,\"you are not eligible for refund\");\r\n        require(contributors[msg.sender]>0);\r\n        address payable user=payable(msg.sender);\r\n        user.transfer(contributors[msg.sender]);\r\n        contributors[msg.sender]=0;\r\n    }\r\n\r\n    struct request{\r\n        string description;\r\n        address payable recipient;\r\n        uint value;\r\n        bool completed;\r\n        uint noOfVoters;\r\n        mapping(address=>bool) voters;\r\n    }\r\n\r\n    mapping(uint=>request) public requests;\r\n    uint public numRequests;\r\n\r\n    modifier onlymanager(){      //read once\r\n        require(msg.sender==manager,\"only manager can call this function\");\r\n        _;\r\n    }\r\n\r\n    function createRequests(string memory _discription,address payable _recipient,uint _value) public onlymanager{\r\n\r\n        request storage newRequest = requests[numRequests];\r\n        numRequests++;\r\n        newRequest.description=_discription;\r\n        newRequest.recipient=_recipient;\r\n        newRequest.value=_value;\r\n        newRequest.completed=false;\r\n        newRequest.noOfVoters=0;\r\n    }\r\n\r\n    function voteRequest(uint _requestNo) public{\r\n        require(contributors[msg.sender]>0,\"you must be a contributor\");\r\n        request storage thisRequest=requests[_requestNo];\r\n        require(thisRequest.voters[msg.sender]==false,\"you have already voted\");\r\n        thisRequest.voters[msg.sender]=true;\r\n        thisRequest.noOfVoters++;\r\n    }\r\n    \r\n    function makePayment(uint _requestNo) public onlymanager{\r\n        require(raisedAmount>=target);\r\n        request storage thisRequest=requests[_requestNo];\r\n        require(thisRequest.completed==false,\"the rquest is already completed\");\r\n        require(thisRequest.noOfVoters > noOfContributors/2,\"majority does not supported\");\r\n        thisRequest.recipient.transfer(thisRequest.value);\r\n        thisRequest.completed=true;\r\n\r\n    }\r\n\r\n    \r\n}",
    "sourcePath": "H:\\Crowd Funding project\\contracts\\CrowdFunding.sol",
    "compiler": {
        "name": "solc",
        "version": "0.8.19+commit.7dd6d404.Emscripten.clang"
    },
    "schemaVersion": "3.4.16",
    "updatedAt": "2023-11-05T10:19:47.751Z",
    "networkType": "ethereum",
    "devdoc": {
        "kind": "dev",
        "methods": {},
        "version": 1
    },
    "userdoc": {
        "kind": "user",
        "methods": {},
        "version": 1
    }
}